:020000041000EA
:1000000000B5324B212058609868022188439860DF
:10001000D860186158612E4B002199600221596106
:100020000121F02299502B49196001219960352056
:1000300000F044F80222904214D00621196600F024
:1000400034F8196E01211966002018661A6600F04E
:100050002CF8196E196E196E052000F02FF8012189
:100060000842F9D1002199601B49196000215960AB
:100070001A491B48016001219960EB211966A021F2
:10008000196600F012F800219960164914480160C1
:100090000121996001BC002800D000471248134993
:1000A000086003C880F30888084703B5996A0420EC
:1000B0000142FBD001200142F8D103BD02B5186610
:1000C0001866FFF7F2FF186E186E02BD00000240BE
:1000D000000000180000070000035F00212200005C
:1000E000F4000018222000A00001001008ED00E03C
:1000F00000000000000000000000000074B24E7A12
:1001000000200420F7010010C3010010C5010010F9
:10011000C1010010C1010010C1010010C101001097
:10012000C1010010C1010010C1010010C701001081
:10013000C1010010C1010010C9010010CB01001065
:10014000CD010010CD010010CD010010CD01001037
:10015000CD010010CD010010CD010010CD01001027
:10016000CD010010CD010010CD010010CD01001017
:10017000CD010010CD010010CD010010CD01001007
:10018000CD010010CD010010CD010010CD010010F7
:10019000CD010010CD010010CD010010CD010010E7
:1001A000CD010010CD010010CD010010CD010010D7
:1001B000CD010010CD010010CD010010CD010010C7
:1001C00000BE00BE00BE00BE00BE00BE00F04BF888
:1001D000103800BEF2EB8871384B0110544B0110FF
:1001E0003402001090A31AE700202149086006C8D5
:1001F00081F3088810471F48006800282FD10DA4FC
:100200000ECC002902D000F012F8F9E71A491B4A77
:10021000002000E001C19142FCD1194988471949E9
:1002200088471949884700BEFDE701C901C29A42C3
:10023000FBD37047544B0110C00000205C1B002012
:10024000F06501100000042000000420F06501109A
:1002500000100420001004200000000070470B482C
:1002600003F08EF80047EFF30580C0B2704700003E
:1002700008ED00E0000000D0601B0020E822002014
:10028000511D0010590400100D1D0010575600009C
:1002900006005250ABB36053A01F0110060052502D
:1002A000861C0302B01F0110060052505422A29D6A
:1002B000B81F011005005250DE65F468F0650110AA
:1002C000F8B5C04610B5064C2378002B07D1054B76
:1002D000002B02D0044800E000BF0123237010BDB2
:1002E000601C002000000000F00F0110044B10B54E
:1002F000002B03D00349044800E000BF10BDC046F6
:1003000000000000641C0020F00F011010B5002355
:10031000CA5E0024035F9A4200DA080010BD0000A4
:10032000F0B5C64600B58EB0804604910592002413
:10033000092C31D8434B0C20185E05F0C5FAC6B223
:1003400006AB67003F19FE54DF1900237B700520C0
:1003500005F0BAFA0130C5B2BD703B4F3B493800D9
:1003600004F058FE0A223100380004F0BDFE38497E
:10037000380004F04FFE0A220021380004F0B4FED9
:100380003449380004F046FE0A222900380004F0FF
:10039000AFFE0134E4B2CBE7002415E006A9630008
:1003A0001B19CA185278C95C012302936B461420AA
:1003B0001B5E01936B4610201B5E00934346214851
:1003C00006F04CFB0134E4B2092CE7D91D4804F0D7
:1003D00081FCC82004F068FD002401E00134E4B28F
:1003E000092CD9D806A963001B19CD186F783A00DB
:1003F000C95C144E002302936B4614201B5E0193CC
:100400006B4610201B5E00934346300006F026FB2F
:10041000AB78FF18FFB26F700E23F25E9742DDDDFE
:10042000084B0C20185E05F04FFA06AF63001B194D
:10043000F85400236B70052005F046FA0130A870CF
:10044000CCE7C046502000203C1F0020F00F0110D8
:10045000F40F0110FC0F011070B5962189010E48B0
:1004600005F0F8FF0D4C01223C21200004F08EFB2A
:10047000200004F02FFCFA25ED00280004F014FD04
:10048000200006F010FE280004F00EFD20221A21A4
:100490000348FFF745FFC0463C1F002050200020C6
:1004A0008011002030B585B004000D00012806D071
:1004B000002C02D1104B9D4219D005B030BD0E4B1F
:1004C0009942F5D10D4B0E4A1A6000221A71013281
:1004D0005A710C4B02930C4B019301235B42009326
:1004E0000A4B3F3280210A4804F03AFBE0E7084813
:1004F00004F020FBE1E7C046FFFF0000501F002092
:1005000000093D00A0860100801A0600041D00209D
:100510005020002010B502490120FFF7C3FF10BD95
:10052000FFFF000010B58300084A944663441C682E
:1005300040226240C02414408022520113431C60B8
:10054000C000034B9C466044416010BD04C00140A4
:100550000040014080000B4B9C46604400290DD0B8
:100560000823002A0CD004221343026853400C22B3
:100570001340802252011043036070470023F0E7CC
:100580000022F1E704C0014010B501238340D022CE
:100590001206936293610521FFF7C4FF10BD0000AE
:1005A000EFF3108072B6034B1B68002BFBD0BFF338
:1005B0005F8F70472C0100D0BFF35F8F024B00228A
:1005C0001A6080F3108870472C0100D0F8B506003F
:1005D0000C001500FFF7E4FFE308F718F15C0722B1
:1005E0002240012393400B4205D1DBB20B433B7009
:1005F000FFF7E2FFF8BD2100280001F025FC000014
:10060000034B1B6802201840431E9841C0B270473C
:1006100000C00640002307E0054A9A189200BFF385
:100620005F8F0021116001331F2BF5D97047C04641
:1006300040000034054A1078431CDBB21370172BBE
:1006400002D9130010221A707047C046E81100202A
:10065000074B9B68103080001950BFF35F8FBFF3CA
:100660005F8F044B0021196082F310887047C046E9
:1006700000ED00E0240100D010B5091A081F0A4B54
:100680009C466144094A914208D8C30706D44010E9
:100690004005400D064B184380B210BD054B064A7D
:1006A0009921064801F036FBFC070000FE0F000010
:1006B00000E0FFFF0410011060120110341001105F
:1006C00010B5091A04394C08090B08D14905490D20
:1006D000064A11430180064B2343438010BD054B5E
:1006E000054AA121054801F015FBC04600F0FFFFB7
:1006F00000F8FFFF8C1001103412011034100110AB
:1007000001238340034A10681840431E9841C0B239
:100710007047C04600E100E0002904D0034B186098
:10072000034B18607047034B1860FBE780E200E062
:1007300000E100E080E100E010B5012383401800F3
:10074000FFF7EAFF10BD0000024B9B6810308000ED
:10075000C058704700ED00E070B504000D00EFF3E5
:10076000108672B60C4B1B68002BFBD0BFF35F8F5B
:100770002000FFF7E9FF094B984201D0A84205D1BC
:10078000320029002000FFF763FF70BD044B054ACB
:100790007C21054801F0BEFA240100D0CD010010F3
:1007A0009C1001107C12011034100110F0B5CE46DF
:1007B000474680B583B006000D00EFF3108872B68F
:1007C000564B1B68002BFBD0BFF35F8F544B9A68CE
:1007D00034001034A300D758524B9F4207D0AF4289
:1007E00000D199E00197504BFB1A2F2B09D94246B3
:1007F00039003000FFF72CFF03B0C0BCB946B0464B
:10080000F0BD3000FFF77CFF814600213000FFF78C
:1008100093FFBFF35F8FFFF726FD002801D08442CE
:1008200011D10123019C9C430022A368AB4212D04A
:100830000622A256002A0DDB53009B189B002200C3
:10084000394CE418F1E72C21384B394AFF3139484B
:1008500001F060FA2200AB4257D106256557002D02
:1008600039DB6B005B199A002F4B9B189A68A260CA
:10087000DA79E27106229A56A2719B795BB2002B5B
:1008800010DABD200002A0806B005B199B00264A95
:10089000D318294A11789971157049463000FFF72D
:1008A0004BFFA4E7201D6B005B199B001E4A9B18A1
:1008B0001A1D9B88D90A1C2907D15B055B150233D9
:1008C00059005118FFF7D8FEDDE71C4B1C4AA72141
:1008D000184801F01FFA002812D1002A0ED0FF2379
:1008E0009371184B9380144A1378A371164B0E49D9
:1008F000641A644163431B0D1370CEE7094FF2E79E
:10090000201D1249FFF7DCFEC7E76021104B084AA3
:10091000FF31084801F0FEF9024F68E7240100D0DA
:1009200000ED00E0CD010010EC110020B01101102D
:100930004C12011034100110E62200209811011011
:100940006C12011000BDFFFFAAAA000026120020B1
:10095000D411011070B50400012606432D4BF31A83
:100960002F2B28D8FFF77FFC00282BD0EFF3108C1B
:1009700072B6294B1B68002BFBD0BFF35F8F274D4E
:1009800022002449521A524155432D0D6DB2244B79
:100990009B6880001B58B3421BD00022032A32D828
:1009A00053009B189B001B49CB189B795BB2AB4251
:1009B0001FD00132F2E7C2211A4B1B4A49001B48E3
:1009C00001F0A8F988211A4B174AFF31174801F0A6
:1009D000A1F9134B9B68174A1A50174B1A78A2714A
:1009E0001D70BFF35F8F0C4B00221A608CF31088D0
:1009F00070BD08005300991889004118FF268E71B8
:100A00000E4A8A80E9E7CC210D4B074A4900074886
:100A100001F080F9EC110020240100D0AAAA000006
:100A200000ED00E0DC11011018120110341001106B
:100A300004120110CD010010E622002000BDFFFFCE
:100A4000101201100022044B02E0044902C30132DB
:100A5000072AFAD97047C04600E400E08080808011
:100A6000024B9C466144890001607047400000349D
:100A700070B505000C00080000F030FD200000F00B
:100A800039FE0849200000F079FDFFF7D3FD064B41
:100A90009C466044800068602C75A400034BE550C0
:100AA00070BDC046B50D001040000034B8200020D5
:100AB0000A4B1A68EFF3108172B61368002BFCD052
:100AC000BFF35F8F054B1B68BFF35F8F00221A6077
:100AD00081F3108840BF002000217047CC22002005
:100AE00010B5002922D003681B7B99421ED8174BF2
:100AF0009C466144090183689C4661440C684968CE
:100B0000002A19D003681B7B9A4215D883680F48C6
:100B10008446624412019A1810685368020001204A
:100B20008B4201D80ED00020C0B210BD084B094A3C
:100B30003B21094801F0EEF8054B064A3B210648E7
:100B400001F0E8F8A242EFD8EDE7C046FFFFFF0F43
:100B500000130110B4150110AC12011010B50029DA
:100B60001ED0037B99421BD84B005B18033B0468E3
:100B7000A4466344002919D0002A1DD0914221D0F7
:100B8000002A25D0047BA24222D804685000801895
:100B9000033820188170197800291FD11A7010BDF0
:100BA000104B114A6821114801F0B4F8104B114A5A
:100BB0006F310E4801F0AEF80F4B0E4A70210B4812
:100BC00001F0A8F80D4B0B4A7121084801F0A2F87A
:100BD000044B054A6821054801F09CF841701A70E1
:100BE000DDE7C04634130110201601105013011028
:100BF000B4130110FC150110C0130110CC13011027
:100C000070B506000D001400002914D0002A14D07D
:100C1000806873689847002806D0220029003000B9
:100C2000FFF79CFF280007E02A0021003000FFF7B3
:100C300095FF200000E0100070BD0800FCE70000F8
:100C4000F0B583B00500009201930AAB1C780BABA2
:100C50001F78002C26D003685A7B944207D10123C9
:100C6000002B19D1002C3BD1200003B0F0BD002C8B
:100C70000CD01A7B944209D81A6863001B19033BF5
:100C8000D3189B78002BEBD00123E9E73E4B3F4A7A
:100C900068213F4801F03EF83E4B3F4A65213F48FE
:100CA00001F038F803689C7B002CDBD012D01A7B53
:100CB00094420FD862001219033A19688C466244B4
:100CC00051789973002900D1D97300239370537020
:100CD0001370C7E72C4B2D4A68212D4801F01AF8F4
:100CE000002C3AD02B681B7B9C4236D82C4BE31847
:100CF0001B01AA6894466344009A1A60019A5A60DC
:100D0000089A9A60099ADA602E68002C2BD030D0AD
:100D1000337B9C422DD863001B19033B32689446F9
:100D2000634400229A705A701A70717B220030005E
:100D3000FFF766FF7073844200D095E7287D009A24
:100D4000019B00F063FC061E01D0002F17D00C9B06
:100D5000002B00D188E71E7086E7124B124A3B2118
:100D60000E4800F0D7FF114B114AA521084800F0AA
:100D7000D1FF054B054A6821054800F0CBFF2868E4
:100D8000210000F06BFEE2E7341301102016011081
:100D900050130110E41301102C160110AC120110B5
:100DA000FFFFFF0F00130110B4150110A81201106E
:100DB00010160110F0B5DE4657464E464546E0B5E2
:100DC0008BB00990002308938200B24BD6583700AD
:100DD00032E0B14BB14A3F21B14800F09BFFB14B2B
:100DE000B14A3B21B14800F095FFB14BB14A8C218B
:100DF000AE4800F08FFFB04BAE4A9021AB4800F0F8
:100E000089FFA84BAD4A4021A84800F083FF2A681B
:100E10006B68099800F0FAFB00239A4698467B68B5
:100E2000BFF35F8F00221A6086F310884346002BC1
:100E300051D1002800D126E100F05CFB02000B1E1E
:100E4000C7DB00200021069007917868EFF3108639
:100E500072B601680029FCD0BFF35F8F39688846FD
:100E60004C7B002C32D0BAD0097B8C42B7D8944945
:100E700065182D01B9688C46654428686968801A30
:100E800099410029C3DC01D10028C0D1002140468E
:100E900000F0DAFDA042A8D12A686B680692079399
:100EA000AB689846EB689A464346002BA3D0002CCB
:100EB000A7D03B681B7B9C42A3D8631EFA68D35C17
:100EC00008931B02184338610020A8E700239A46C4
:100ED00098460020A3E7089B1B02234399465146EE
:100EE0001800C04705000E007A68EFF3108B72B649
:100EF000136859424B41D9B2002BF9D1BFF35F8F30
:100F0000002E26DB002E52DD3B69002B53D04B45D3
:100F100072D100F0EFFA02000B1E73DB0100180023
:100F200052197341984202D804D1914202D9012248
:100F30005242D317002B6BDB002104910131039146
:100F4000029451460191414600913800FFF778FE26
:100F500049E03B69002BD5D04B451CD1069A079B35
:100F600010001900521BB341994202D804D190429B
:100F700002D901225242D317002B12DB0021049127
:100F8000013103910294514601914146009138008C
:100F9000FFF756FE27E04B4B464A9F21434800F09F
:100FA000B9FE3D4B3D4A3F213D4800F0B3FE002EC7
:100FB00001D1002DA8D13A68002C45D0537B9C422A
:100FC0002CD1012100293FD1D37B002B42D1D473F6
:100FD000002C52D03B681B7B9C424ED8FA68013CE7
:100FE000135D0133135500233B617A68BFF35F8FB4
:100FF00013608BF310881FE7324B2E4AA2212B4837
:1010000000F088FE244B254A3F21254800F082FE4F
:10101000214B224A3F21224800F07CFE002C0DD0BB
:10102000137B9C420AD863001B19033B106884465B
:1010300063449B78002BC5D00121C3E7224B234A90
:101040006821234800F066FE224B234AF6212048FF
:1010500000F060FE002B0AD0117B8B4207D85900AC
:10106000CB18033B11688C4663445C70AFE7164BAA
:10107000164A6821164800F04DFE0A4B0F4A4021DF
:101080000A4800F047FE0BB0F0BCBB46B246A9468A
:10109000A046F0BDB82000200C14011080150110EE
:1010A0002814011000130110B4150110AC12011026
:1010B0008814011098150110A0140110D815011002
:1010C000FFFFFF0FAC1401103413011020160110A4
:1010D00050130110E8140110EC15011010B50A4B63
:1010E0005B68002B04D00A210848FFF7B9FC10BD4B
:1010F000054C2300064A1021206800F0C5FB03219F
:101100002000FFF7B5FCEEE734120020CC220020CF
:10111000E10A001010B5064B5B68002B01D00448B3
:1011200010BD044B044A5C21044800F0F3FDC046A6
:10113000341200200C150110C0150110AC12011062
:10114000F0B5DE4657464E464546E0B58BB0804684
:1011500016001F00149B9A46159B994616AB1B78E8
:101160009B461F2302AA9446634400221A7032E071
:10117000002809D042461268127B904204D8421ED1
:101180004146C9688A5C48E0434B444A4021444890
:1011900000F0C0FD0798002B75D05B46002B72D085
:1011A0004946D04704000D0003000B4300D171E015
:1011B000002946DB00F09EF906000F1E55DB3619AC
:1011C0006F41B94202D804D1B04202D90126764219
:1011D000F717002F4FDB43465A68EFF3108472B6BF
:1011E000136859424B41D9B20791002BF8D1BFF394
:1011F0005F8F1F3302AA9446634404930023039332
:1012000002934B4601935346009332003B00404605
:10121000FFF716FD031EABD1020041464968BFF33C
:101220005F8F00250D6084F31088002B29D01F23C9
:1012300002A98C4663441B78002BABD112021043E9
:10124000A9E732003B00361BAF41BB4202D804D1B4
:10125000B24202D901267642F717002FBBDA114BB2
:10126000114A3F21114800F055FD0E4B0E4A3F2117
:101270000E4800F04FFD0B4B0B4A3F210B4800F08E
:1012800049FD012040420BB0F0BCBB46B246A94626
:10129000A046F0BD0798F6E700130110D81501101D
:1012A000AC1201100C14011080150110281401104B
:1012B000F0B587B006000F00FEF7D5FF00281FD15C
:1012C00006246442E517A4197D41BD4202D803D12A
:1012D000B44201D900240025002D14DB04940595A7
:1012E00000F008F902000B1E13DBA41A9D41002D2B
:1012F00017DC14D03000390000F008F907B0F0BD59
:10130000234800F0A1FD234B234A3F21234800F04E
:1013100001FD204B204A3F21204800F0FBFC002C1F
:10132000E8D0FFF7F7FE0023029301931C4B0093D4
:10133000049A059BFFF704FF002818DADAE7002378
:1013400000E00023002BD5D1164B1A68EFF3108173
:1013500072B61368002BFCD0BFF35F8F114B1B6874
:10136000BFF35F8F00221A6081F3108820BF0499B9
:10137000059A0D4B5B6A9A42E3D80B48806A884213
:1013800003D29A42DBD00123DCE70123DAE7C0462F
:10139000301501100C1401108015011028140110D3
:1013A000B10A0010CC22002000400540F8B504002E
:1013B0000D0000F09FF802000B1E10DB200029003A
:1013C000801859418B4202D804D1824202D90120AF
:1013D0004042C117002908DBFFF76AFFF8BD064B42
:1013E000064A3F21064800F095FC034B034A3F2183
:1013F000034800F08FFCC0460C140110801501104A
:101400002814011010B5FA2292000023002102F0E6
:101410004FFEFFF7CBFF10BD026843680849496AD9
:101420008B4209D80648806A904207D28B4201D08D
:10143000012002E0002000E0002070470120FCE7CE
:1014400000400540026043600048704719140010D6
:1014500070B5EFF305833F2018401038EFF3108C80
:1014600072B6194B1B68002BFBD0BFF35F8F0123B3
:1014700019008140154A5163154A12781400C4407E
:10148000234214D0114B5C6A8300124D5B599C427D
:1014900006D38300104C1B598A430D490A7007E09C
:1014A0000A4A031D9B0099589950002300E000232D
:1014B000BFF35F8F044A002111608CF31088002B6A
:1014C00000D0984770BDC046280100D000400540BC
:1014D000E7220020D0220020D81F002010B50100F4
:1014E000024A0348FFF772F810BDC04650160110BB
:1014F000E5220020044B5B6A034A906A1900536A94
:101500009942F9D17047C04600400540084B5B6ADC
:1015100001E0074B5B6A8B42FBD301E0044B5B6A43
:101520008B4203D1024B9B6A8342F7D37047C0467C
:101530000040054070B504000D00FFF7DBFF02001E
:101540000B0020002900801859418B4202D804D199
:10155000824202D901204042C117002902DBFFF775
:10156000D5FF70BD024B034A3F21034800F0D2FB78
:101570000C140110101701102814011070B504008C
:101580000D00EFF3108672B61B4B1B68002BFBD0CF
:10159000BFF35F8F002D1CD02000FFF7D5F8174B4D
:1015A00083420BD019002000FFF7D6F8012120005C
:1015B000FFF7C2F80123A340114A1360A400114BA6
:1015C000E550BFF35F8F0C4B00221A6086F3108842
:1015D00070BDA2000B4B0021D1500122A2400A494C
:1015E0000B7893430B7005492000FFF7DFF80021CB
:1015F0002000FFF7A1F8E4E7280100D05114001003
:1016000038600540D81F0020E7220020F0B5DE46F4
:1016100000B584B00400150001921E000293FFF78C
:1016200069FF03958E4202D84ED185424CD9EFF323
:10163000108B72B6274B1B68002BFBD0BFF35F8F5C
:10164000254A17780125A540EBB23B431370234B85
:101650005D63221D92000199D150A2002049029899
:1016600050501B6A2B4212D11C4B1B6C2B4208D0D2
:101670000020BFF35F8F174B00221A608BF3108896
:1016800023E0184B184AC121184800F043FBFFF72C
:1016900031FF8E4214D802D1039B834210D80E4BE7
:1016A0001B78BB420ED00D4B1D625D631F200440B2
:1016B0000123A3400E4A1360074B1F701E38D8E762
:1016C0000020D6E70120D4E7012004B080BCBB464F
:1016D000F0BDC046280100D0E722002000400540B0
:1016E000D022002074160110F41601109816011073
:1016F00080E200E0EFF3108C72B60B4B1B68002BFE
:10170000FBD0BFF35F8F01238340084A136208496F
:101710000A789A430A70BFF35F8F034B00221A6066
:101720008CF310887047C046280100D00040054067
:10173000E722002010B500291ED0037B99421BD858
:101740004B005B18033B0468A4466344002919D08E
:10175000002A1DD0914221D0002A25D0047BA2422C
:1017600022D8046850008018033820188170197836
:1017700000291FD11A7010BD104B114A6821114861
:1017800000F0C8FA104B114A6F310E4800F0C2FA4F
:101790000F4B0E4A70210B4800F0BCFA0D4B0B4A60
:1017A0007121084800F0B6FA044B054A6821054843
:1017B00000F0B0FA41701A70DDE7C0463413011032
:1017C0003018011050130110B41301101C1801102F
:1017D000C0130110CC13011070B506000D001400E9
:1017E000002914D0002A14D0806873689847002814
:1017F00006D0220029003000FFF79CFF280007E0F8
:101800002A0021003000FFF795FF200000E01000C3
:1018100070BD0800FCE7000010B5002343730133DE
:101820008373037BC3730123027B9A4214D9002B79
:101830000CD0027B934209D85A00D218033A0168AF
:101840008C4662440133DBB25370EDE70B4B0C4A1C
:1018500068210C4800F05EFA002A09D0924207D8AD
:10186000016853009A18033A8A180023537010BD78
:10187000024B034A6821034800F04CFA341301106C
:10188000301801105013011010B5017342608360CD
:10189000FFF7C2FF10BD000070B50400081E00D1A4
:1018A00070BD002934D0237B994231D84B005B189E
:1018B000033B2268944663445A78002AF0D02DD026
:1018C000237B9A422AD853009B18033B21688C46FD
:1018D00063445D7800215970002825D0237B98420D
:1018E00022D843001B18033B21688C466344002127
:1018F000597001002000FFF76FFF0600290020004B
:10190000FFF7CAFF020031002000FFF765FFC7E7BD
:10191000084B094A6821094800F0FCF9054B064AC2
:101920006821064800F0F6F9024B034A6821034893
:1019300000F0F0F9341301103018011050130110A9
:1019400070B505000C001600002928D02DD0037BAF
:1019500099422AD84B005B18033B026894466344C3
:101960005A78002A27D19A78002A2AD11978FFF7C5
:1019700093FF0300002E03D0EA7B002A27D1EC73EB
:10198000002B37D1002C49D02B7B9C4246D82B68AA
:1019900061000C19033C1C190023637070BD224BBD
:1019A000224A3821224800F0B5F9224B224A682108
:1019B000224800F0AFF9224B1C4A3A211C4800F0A3
:1019C000A9F9204B194A3B21194800F0A3F9002A34
:1019D0000AD0297B8A4207D851008A18033A29681D
:1019E0008C4662445470CAE7124B134A682113486C
:1019F00000F090F9002B0BD02A7B934208D84300CB
:101A00001B18033B2A689446634400229A70B9E786
:101A1000084B094A6821094800F07CF9054B064A41
:101A20006821064800F076F92817011008180110FF
:101A30003017011034130110301801105013011029
:101A400084170110AC17011070B504000A00457B23
:101A50002900FFF775FF6073280070BD70B50400A2
:101A6000002967D0437B8B420ED0002911D0037B25
:101A700099420ED84B005B18033B0268D01883785C
:101A8000002B0CD1002056E00121FFF7DDFF0120E3
:101A900051E0294B294A6821294800F03BF9002BE5
:101AA00020D0227B93421DD85A00D318033B2268D2
:101AB000D2182568EB5C8B421AD0002B1BD0227BFE
:101AC000934218D85A00D318033B2268D21853788F
:101AD0008B4216D0002BF0D11A4B1B4A67211B48B2
:101AE00000F018F9144B154A6821154800F012F956
:101AF0004378137007E0104B104A6821104800F03B
:101B000009F9437853700023837043700122200049
:101B1000FFF716FF0200617B814205D02000FFF72E
:101B20005BFE6073012006E0094B074A6D21074800
:101B300000F0F0F8002070BD3413011030180110CF
:101B40005013011010120110F0170110301701107E
:101B5000D017011010B50400FEF76CFD0100200045
:101B6000FEF77EFFFF232371BFF35F8F10BD10B51B
:101B70000400FEF75FFD01002000FEF771FFFF2368
:101B8000237100236371BFF35F8F10BD054B984233
:101B900004D08022D203044B1A60704780221204C2
:101BA000F9E7C0460080034000E0004070B5040043
:101BB0000D00062000F062FAC000290001F034FC9C
:101BC000C60908D00E4B9E4217D87F23184001301B
:101BD0003500460800E001256562A6622C348020AD
:101BE0008001044300232360062000F047FA8000B0
:101BF000A901891901F018FC70BD0026014DEBE721
:101C0000FEFF0000FFFF0000002909D00A22064B5A
:101C10009C466044434258414000044BC2527047C6
:101C200080225200F3E7C0460080FCBFE022002083
:101C300070B505000C00062000F020FA002829D01D
:101C4000164B9D4227D08022D203154B1A60154BAC
:101C50001A60154B9B6811009943FAD100212800A6
:101C6000FFF7D2FF21002800FFF7A0FF2C002C3443
:101C7000E96A60224A406E211140802252012243CB
:101C800011600A4B2B6380239B01234310221A60AF
:101C90000323AB6470BD80221204D6E700800340AA
:101CA00000E0004000F0004000C0004001030000E0
:101CB000064B9A6A8369DB0606D5044B9B6A9B1A1E
:101CC0008B42F7D9002000E001207047004005401A
:101CD00000BEFDE703000A4A1268002A08D0084A3D
:101CE0001068C318074A9A4206D3054A1360704722
:101CF000034A05491160F2E701204042F7E7C04678
:101D0000B420002000000420E822002010B5FFF7D6
:101D1000DFFF000010B582B00C001900002A0CD0C3
:101D2000084B002A0BD001920093230002000648C2
:101D300002F074FC0120FFF7CBFF044BF1E7034AEC
:101D4000F1E7C046F018011000190110FC1801104D
:101D500070B52B4B2B4A1A602B4B2C4A1A602C4B1C
:101D60009A682A4B9343FAD12A4C01E008CC984751
:101D7000294B9C42FAD300F001F9234B274A1A6001
:101D8000234B9B68DB43DB01FAD1254B40229A674A
:101D90005A671A67DA66234C09E0234B234A8321EA
:101DA0002348FFF7B7FF2000FFF7D4FE0834214B8C
:101DB0009C4209D22368002BF5D0012BEDD12000E5
:101DC000FFF7D5FE0834F2E71B4CA1681B4DC0227B
:101DD000280002F07BFAA560FEF745FA002800D043
:101DE00000BEFEF717FCFEF72DFEFFF777F9144C47
:101DF00001E008CC9847134B9C42FAD370BDC04613
:101E000000E00040BFCDFBFE00F00040FE7F3C0044
:101E100000C00040081B0020181B0020FFFFFF012E
:101E200000F00140D81A002030190110BC1901102F
:101E300050190110081B002000ED00E000000020F8
:101E4000181B00205C1B00200FB400B583B00848AD
:101E500002F0B2FB049B002B07D005A901911800EA
:101E600002F0BAFB034802F0A7FB0120FFF730FFA6
:101E7000AC190110882E0110F8B5DE4657464E46C3
:101E80004546E0B505000F0092460A9A93424ED3AC
:101E90001A0E91461E020A9A00233000494601F0AC
:101EA00005FB80466C006419A4002F4B9C466444DB
:101EB0006368834200D260602B1FDBB29B46012B1C
:101EC0003BD9C0239B012343802212011A60AB003F
:101ED000264A9958002905D0506901F0A5FA013029
:101EE0000138FDD153465A0123685A40E0231A4075
:101EF00080235B0123431A605A46012A28D9802394
:101F00009B012343802212011A60434663604246CC
:101F100000233000494601F0C9FAAD00134B585177
:101F20000120F0BCBB46B246A946A046F8BD104B06
:101F3000104A2D211048FFF7EDFE012FC1D1C0231B
:101F40009B01234303221A60A368DB07FCD5C9E782
:101F50002168794003220A401A60A2680123BB402D
:101F60001342FAD0CBE7C04600800040E81F0020B3
:101F7000CC190110401A0110E019011030B583B0DE
:101F80000C2000F021F9FEF73BFB00280DD00023C8
:101F900004E099002D4A2E4888500133092BF8D9C6
:101FA0002A4B2C4A5A6203B030BD2B4B00229A6751
:101FB00000F012F9294B01221A60274B5B6C012BB0
:101FC000FBD1274B03221A60234B9B6B012BFBD1C8
:101FD000013300930433234A0121234800F054F8CD
:101FE00005230093214A0121214800F04DF8214B9F
:101FF0000093002202210420FFF73EFF1E4D0095B2
:102000002B00002201210520FFF736FF104C009421
:102010002300002200210720FFF72EFF0094230059
:10202000002200210820FFF727FF0A4B009323001E
:10203000002200210920FFF71FFF00952B0000223E
:1020400000210620FFF718FFADE7C046E81F00207B
:10205000006CDC021BB70000008000403CB0004078
:1020600030B00040002F685900800240008C864745
:1020700000C00240001BB700405973078000014BAD
:10208000C0587047E81F0020F0B5C64600B50400F0
:102090000F0090461D000C2001F0C6F906003D4AD5
:1020A00042443D4B9A4243D843011B1A9901C91A35
:1020B000C90009188901404601F0B6F90200103A3A
:1020C00098235B009A4239D86B1E062B3CD8069B9E
:1020D000013B062B38D8069B9D423BD343461A0949
:1020E000B2423DD32D04069B1E0335432368002BCB
:1020F0003CDB2A4B9C424AD080225201284B1A607A
:10210000284B1A60284B9B6811009943FAD127602D
:10211000A060231DC02292011A432123136023686B
:10212000002BFCDAE5600823136080BCB846F0BDE4
:102130001E4B1F4A11211F48FFF7ECFD1E4B1C4A86
:1021400019211C48FFF7E6FD1C4B194A1C211948B0
:10215000FFF7E0FD1A4B164A22211648FFF7DAFD79
:10216000184B134A25211348FFF7D4FD22683F235B
:102170001340BB42BDD1A3681B051B0D8342B8D1E0
:10218000E368EE22D2021340AB42B2D1CDE7802207
:102190009201B3E780E84BD380F8A93200C0024037
:1021A00000E0004000F0004000C00040501A011064
:1021B000A41B0110B01A0110081B0110241B0110F0
:1021C000701B0110881B011080239B000343014AF0
:1021D000D362704700800540064BAA2212011A60A4
:1021E0002F22DA60044B054A1A60024B5B68002B11
:1021F000FBDA7047004002400060024000B0FA0085
:102200009A4200D288547047704710B5002802D017
:102210000B684968984710BD0100002007E0830063
:102220001B185B00501C08601078C01830380A6812
:102230001378303BDBB2092BF1D97047F0B5DE469D
:1022400057464E464546E0B583B093461F000C9B6B
:102250009A460D9C0E9B99460F9B9B0703D0B84650
:102260000F00060022E00192A34688464E46B9467A
:102270000700B44207D2551C4B4641462020B847C0
:1022800001342A00F5E73D004F465C46019B9B4622
:10229000B1464646B84637002E0007E0013C551CC3
:1022A0005346185D43463900B0472A00002CF5D14B
:1022B00035003E0047460F9B9B0707D4100003B034
:1022C000F0BCBB46B246A946A046F0BDB0464E465D
:1022D000B9462F005D46531BB342EFD2541C4B4608
:1022E00041462020B8472200F5E7F0B5CE464746E4
:1022F00080B585B0944698460C9D0D9C0EAB1B781E
:102300009946109A119B129EB7071CD4002B0CD033
:10231000F7070AD54F46002F02D10C37374204D0B9
:10232000013B02E030272F550134944201D21F2C8B
:10233000F8D9F70707D59C4205D21F2C03D83027C0
:102340002F550134F5E7F70615D5770505D4002C90
:1023500003D0944224D09C4222D00F9A102A2BD032
:102360000F9A102A30D00F9A022A35D01F2C02D88B
:1023700030222A5501341F2C05D84A46002A31D074
:102380002D222A5501340396029301940095434669
:102390006246FFF753FF05B0C0BCB946B046F0BD7A
:1023A000621E012C06D00F9F102F01D01400D4E71D
:1023B000023CD2E71400D0E7B206D1D41F2CCFD80C
:1023C00078222A550134D1E7B206CCD51F2CCAD8C1
:1023D00058222A550134C9E71F2CC7D860322A5524
:1023E0000134C3E7720703D52B222A550134CAE70B
:1023F0003207C8D520222A550134C4E7F0B5DE469D
:1024000057464E464546E0B593B081468A46089207
:1024100009931CAB10CB1B789B461E9D219B9846B5
:10242000002C03D1102342469A4390468023DB00C0
:1024300046461E4042461A4212D0002C22D00026A8
:102440000EE03033D9B2771C0AAB99552900200031
:1024500000F0EAFFAC4216D31F2F14D83E00040050
:102460002900200000F0E0FFCBB2092BE9D9424659
:10247000920605D54121C918C9B20A39C9B2E2E7A5
:102480006121F8E7270043460693209B05931F9B95
:10249000049303955B46029301970AAB0093099B53
:1024A000089A51464846FFF720FF13B0F0BCBB46E0
:1024B000B246A946A046F0BDF0B5DE4657464E46A8
:1024C0004546E0B595B0089009910A920B931E9E7F
:1024D0001F9C20AB1B789B46229B9946239D269BE5
:1024E0009A463300234303D1103352469A4392460F
:1024F0008023DB0057461F4052461A4219D0330052
:1025000023432DD0002714E03033DAB27B1C9846E9
:102510000CABDA554A462B003000210000F0C6FF14
:10252000A5421FD819D043461F2B1BD8474606008B
:102530000C004A462B003000210000F0B7FFD3B258
:10254000092BE1D95246920605D54122D218D2B2C2
:102550000A3AD2B2DAE76122F8E7B145E3D901E0FD
:102560000023984653460693259B0593249B04938A
:102570004B4603935B460293434601930CAB009397
:102580000B9B0A9A09990898FFF7AFFE15B0F0BCAB
:10259000BB46B246A946A046F0BD0000F0B5DE46F7
:1025A00057464E464546E0B591B083468A460C9262
:1025B00098461A9C08941B9D099522002B00200028
:1025C000290001F002FA002800D0E5E00122524281
:1025D000D74B2000290001F0F3F9002800D0DBE000
:1025E00001225242D34B2000290001F0D3F90028E8
:1025F00000D0D1E000220023089E3000099D290070
:1026000001F0C8F9002800D0DDE00898099906908B
:1026100007918023DB001E9A1A400D921E9A1A42DF
:1026200001D106231C930698079904000D000A00A7
:102630000600024300D1D1E0080D4005400DBE4C1C
:10264000A44660440A03120BBC4B13431F0001F065
:10265000CFF9BB4ABB4B01F05AF9BB4ABB4B01F067
:102660002FF904000D000022B94B3000390001F0B1
:102670001EF9B84AB84B01F04AF902000B002000DD
:10268000290001F01DF901F0CBF9814601F0B0F904
:1026900004000D00B14AB24B01F039F90022B14BF0
:1026A00001F00EF901F0BCF90600AF4AAF4B200073
:1026B000290001F02CF904000D00300001F098F918
:1026C000AB4AAC4B01F023F902000B0020002900BB
:1026D00001F0EDF804000D0002000B0001F017F905
:1026E0000A900B91A44BF31800261F0522002B0023
:1026F0002000290001F0E4F80E900F9122002B0039
:1027000000208021C90501F0D2F804000D0000224C
:102710009A4B0A980B9901F0DCF80022984B01F0D3
:10272000CFF802000B000A980B9901F0D2F80022B2
:10273000944B01F0C5F802000B000A980B9901F0C8
:10274000C8F802000B002000290001F0B9F80200CF
:102750000B000E980F9901F0BCF80022774B01F0A6
:10276000AFF832003B0001F0D2F806000F00040081
:102770000D00069A079B01F023F9002830D00123B1
:102780005B429C46E14400227D4B3000390001F061
:10279000A0F804000D0023E01E9B04931D9B0393EF
:1027A0001C9B0293089A099B0092019343460C9A42
:1027B0005146584600F0FCF811B0F0BCBB46B2469A
:1027C000A946A046F0BD0023002406930794069670
:1027D00080231B069C46654407951AE7002399460B
:1027E0004B466333C62B1ED804261E9B1B0526D5DD
:1027F0002B0023430FD0644A644B0698079901F0DD
:10280000D7F8002879D00022614B0698079901F08B
:10281000C1F8002871D01C9B4B4506DD4A46981A2A
:10282000431E1C9303E00526DFE700231C9380234F
:10283000DB001E9A1A431E920026002399461D9B18
:102840009E4264D29F1B02231E9A1A400A921E9A2D
:10285000134202D0002E00D000274B46002B07D099
:1028600022002B000698079901F033F80690079193
:10287000002200230898099901F08CF8002848D11B
:10288000444B1E9A1340049303971C9B0293069B90
:10289000079C0093019443460C9A5146584600F019
:1028A00087F8002E00D187E71E9B9B063DD5452566
:1028B000441C4346020051462800D8474B46DA17CD
:1028C0009B18534005220592013E04960022039274
:1028D0000A3202924A46D00F0190009343462200EA
:1028E00051465846FFF78AFD0A9B002B00D163E74B
:1028F00002005F460C9E1D9D54E01C9B002B9ED049
:102900000D9B002B9BD01C9B013B1C9397E7002742
:1029100099E7069C079D2200290080200006844636
:1029200061440B0006920793AAE76525C0E7C046FD
:10293000FFFFEF7FFFFFEFFF01FCFFFF0000F03F15
:10294000FB799F501344D33FB3C8608B288AC63F9E
:102950000000F83F61436F63A787D23F71A37909F5
:102960004F930A400000E03F1655B5BBB16B0240E3
:10297000EF39FAFE422EE63FFF03000000002C4034
:1029800000002440000018402D431CEBE2361A3FA3
:1029900080842E41FFF7FFFF541C43465146202000
:1029A000B8472200931BAB42F6D3100004E7C046A1
:1029B000F0B5DE4657464E464546E0B595B0069022
:1029C000079193469946209F1E9A1F9B100019005D
:1029D00000F0FBFF002831D101225242BF4B1E986C
:1029E0001F9900F0D7FF002837D101225242BC4B7B
:1029F0001E981F9900F0E4FF00283DD10022B94B3A
:102A00001E981F9900F0DCFF002850D10022B64B21
:102A10001E981F9900F0BEFF002848D10022002315
:102A20001E981F9900F0B6FF002850D10023984649
:102A3000229B5B0500D4B6E0002458E0229B039360
:102A4000219B029303230193A84B00934B465A46C4
:102A500007990698FFF7F2FB0EE1229B0393219B57
:102A6000029304230193A24B00934B465A460799C5
:102A70000698FFF7E3FBFFE00423229A1A4022990D
:102A80000B4210D09B4B002A0FD0042222990391B5
:102A900021990291019200934B465A460799069854
:102AA000FFF7CCFBE8E0944BEDE70322EEE7229B37
:102AB0000493219B039302971E9B1F9C00930194F8
:102AC0004B465A4607990698FFF768FDD4E01E9AD0
:102AD0001F9B0020002100F0EAFE1E901F910123A1
:102AE0009846A5E70CAB30221A55013F01341F2C44
:102AF00001D8092FF6D81E981F9900F091FF050004
:102B000000F076FF02000B001E981F9900F0CFFE28
:102B1000FA007A4B9B181A685B680A920B9300F0D4
:102B2000F6FE0890099100F09FFF060000F05CFFA0
:102B300002000B000898099900F0B9FE089009916D
:102B400000226F4B00F03CFF00282ED001363000F1
:102B500000F04AFF02000B000A980B9900F020FFDA
:102B6000002801D001350026002F2CD1280000F0CC
:102B70003FFF02000B001E981F9900F098FE060010
:102B80000F0000225E4B00F005FF002846D1002216
:102B90005B4B3000390000F013FF00283ED1EB07FB
:102BA0003CD501353AE0062746E70022544B089809
:102BB000099900F0EFFE0028D6D1002E01D0F307CE
:102BC000D2D50136D0E7AA461F2C11D8013F0A21E1
:102BD000300000F029FC651C30310CAB19550A217E
:102BE000300000F021FC092E0ED906002C00EBE786
:102BF00055461F2C0CD87B1E002F09D00CAA302163
:102C000011551F000134F4E72B0055461C00F0E776
:102C10001F2C03D80CAB2E221A5501341F2C10D8B0
:102C20000A21280000F0D8FB661C30310CAB195586
:102C30000A21280000F0D0FB051E01D03400EDE78A
:102C400034000323229A1340012B1CD01F2C06D8DA
:102C50004346002B32D00CAB2D221A550134229B57
:102C60000393219B029301940CAB00934B465A466D
:102C700007990698FFF7E2FA15B0F0BCBB46B246DA
:102C8000A946A046F0BD219B002B13D04346002B44
:102C900002D10C3313420FD0219B013B2193190029
:102CA00003E00CAB30221A5501348C42CED21F2CDB
:102CB000F7D9CBE72199F8E72199F6E7229B5B0743
:102CC00004D50CAB2B221A550134C8E7229B1B07F5
:102CD000C5D50CAB20221A550134C0E7FFFFEFFF2A
:102CE000FFFFEF7F65CDCD4165CDCDC1BC1B011090
:102CF000C01B0110B41B0110B01B0110A81D011056
:102D00000000E03FF0B5DE4657464E464546E0B58A
:102D100093B082468B4690461193002900D1EBE296
:102D200000275546119B1878002800D1E7E2252896
:102D300009D07C1C43463A005946A847119B0133F1
:102D400011932700EEE7013311930024119A1178B3
:102D50000B00203BD8B2102803D88300D048C358BA
:102D60009F460B00303BDBB2092B2CD92A292FD0F0
:102D700000230A93119B1A782E2A39D000239A46F1
:102D8000119A1378683BD9B2122976D88B00C549BD
:102D9000CB589F4601231C4301321192D6E70223F0
:102DA0001C4301321192D1E704231C4301321192DA
:102DB000CCE708231C4301321192C7E710231C43C0
:102DC00001321192C2E711A8FFF726FA0A90D1E763
:102DD0001C9B1A1D1C921868002804DB0A90119B8A
:102DE00001331193C6E702231C4343420A93F6E7DB
:102DF0008022D20014435A1C11925A781300303B9F
:102E0000DBB2092B04D92A2A07D000239A46B7E758
:102E100011A8FFF701FA8246B2E71C9B1A1D1C920B
:102E20001868002804DB8246119B01331193A7E741
:102E30000020F8E780235B002343511C1191527856
:102E40006C2A01D01C0018E0C0239B001C430131F8
:102E5000119112E080232343511C11915278682A6A
:102E600001D01C0009E0C0231C430131119104E092
:102E700080235B001C4301321192119B18780300E0
:102E8000253BDAB2532A00D92CE29300864AD35864
:102E90009F4680239B001C4301321192EDE7802363
:102EA0005B001C4301321192E7E7782809D05828CB
:102EB00038D06F2838D0622838D010239C430A2697
:102EC00000E01026582833D0692803D0642801D0A8
:102ED0000C229443630501D50122944369282AD02A
:102EE000642828D0A30500D59FE0E30500D5B8E00D
:102EF000630600D4CAE01C9A111D1C911168FF22C0
:102F00000A4005940A9B04935346039302960023B8
:102F10000193009243463A0059462800FFF76EFAA3
:102F2000070027E01026CDE70826CBE70226C9E7F1
:102F300020221443C8E7A30520D4E30550D4630638
:102F400066D51C9A111D1C911168FF220A40D317E7
:102F5000D118594005940A9B049353460393029653
:102F6000D20F0192009143463A0059462800FFF7DC
:102F700045FA0700119B01331193D3E61C9BDA1D20
:102F800007218A43110008311C91116853689C463F
:102F9000DB170C930D930C9A0D9B100048400E907C
:102FA000624653400F930E980F990C9A0D9B801A0E
:102FB00099410E900F9108940A9B079353460693EC
:102FC0000496002305936346DA0F02920090019164
:102FD00043463A0059462800FFF76EFA0700C9E752
:102FE0001C9A111D1C911268D317D11859400594D1
:102FF0000A9B0493534603930296D20F01920091C9
:1030000043463A0059462800FFF7F8F90700B1E7B0
:10301000230605D51C9A111D1C910023D25E96E74C
:103020001C9A111D1C91126891E71C9BDA1D072147
:103030008A43110008311C9108940A9B0793534658
:103040000693049600230593029313685468009333
:10305000019443463A0059462800FFF72DFA07002D
:1030600088E71C9A111D1C9105940A9B04935346F2
:1030700003930296002301931368009343463A009A
:1030800059462800FFF7BAF9070073E723060DD564
:103090001C9A111D1C9112681204120C31E7C046D3
:1030A000C81B01100C1C0110581C01101C9A111D8A
:1030B0001C91126825E746281AD01C9B073307226B
:1030C00093431A0008321C9204940A9A03925246BF
:1030D00002925C681B680093019443463A0059468B
:1030E0002800FFF765FC0700119B0133119319E6D7
:1030F00020231C43E1E7672801D0472802D1802321
:103100001B011C43452801D0472801D120231C4323
:103110001C9B0733072293431A0008321C92049425
:103120000A9A0392524602925C681B6800930194CB
:1031300043463A0059462800FFF730FA0700119B32
:1031400001331193EEE502231A00224092462342F6
:103150001FD001241C9B1A1D1C927A1C91461878C2
:1031600043463A005946A8475346002B16D1119BB7
:10317000013311934F46D5E5561C4346594620204E
:10318000B847230032005C1C9D42F5D83D00170073
:10319000E0E701233A002F000A9DF4E74A46A946DA
:1031A0000A9D06E0571C434659462020C847340074
:1031B0003A00661CA542F5D84D469146D7E71C9BC0
:1031C0001A1D1C921B6899465346002B00D1013BE7
:1031D0004E4601E0013613003278002A02D05A1E12
:1031E000002BF7D14B46F21A10928023DB00260009
:1031F0001E401C4203D0524501D95346109302236E
:103200001A0022400B92234205D03A0037004C4668
:10321000A946554620E03A00109B5F46B3462E0073
:1032200006E0551C434639002020B04723002A0001
:103230005C1C0A999942F4D835005E46BB4610944E
:1032400037004C46A946554606E01D000134561C81
:1032500043465946C84732002078002804D0002F42
:10326000F4D06B1E002DF0D117004D460B9B002BA8
:1032700003D1119B0133119354E50A9F109B06E083
:10328000561C434659462020A847230032005C1CA8
:103290009F42F5D81700ECE721231C431C9B1A1D05
:1032A0001C921B68009305940823049353460393D0
:1032B000102302930023019343463A005946280005
:1032C000FFF79CF80700119B013311932AE57C1C42
:1032D00043463A0059462520A847119B01331193D4
:1032E00027001FE57C1C43463A005946A847119B1E
:1032F00001331193270015E50A4B9A4610E5AA46BB
:10330000474502D343465A1E00E03A004346594619
:103310000020D047380013B0F0BCBB46B246A946E7
:10332000A046F0BD092200100EB410B585B0010012
:1033300007AC08CC03940122009452420348FFF7E3
:10334000E1FC05B010BC08BC03B018470122001016
:1033500000B585B0029003910121009313004A4209
:1033600002A90248FFF7CEFC05B000BD0B220010F9
:1033700001480421014B184760120020A1330010BE
:1033800010B5010018231B8814221088984710BD1F
:1033900010B5010018231B8816221088984710BD0D
:1033A000F0B5C64600B507000E000025012398467B
:1033B00000E00135B5420AD2AC003C192068FFF7A5
:1033C000DFFF20600028F4D100239846F1E7404653
:1033D00080BCB846F0BD0000124A936F9B0815D21E
:1033E0009066D166002905D0FFE7FFE7FFE7516F40
:1033F000106F704704B580210906C217514000289C
:1034000000D0C8430DF094FD002104BDF0B5146E4A
:10341000556E576F166FFFF7E3FF146655665767D3
:103420001667F0BD000000D0114A936F9B0813D2BD
:1034300010665166002905D0FFE7FFE7FFE7516FEF
:10344000106F704704B5002801D00020C0430DF074
:103450006FFD002104BDC046F0B5146E556E576F68
:10346000166FFFF7E5FF1466556657671667F0BDE0
:10347000000000D094464E4A926F9208624601D2F4
:1034800030E0C046F0B54A4EB56F6D08FCD3346EDF
:10349000756E776F366F00F025F89446444A1466CF
:1034A0005566576716676246F0BDC0469446404A67
:1034B000926F9208624601D258E0C046F0B53C4E89
:1034C000B56F6D08FCD3346E756E776F366F00F094
:1034D0004DF89446364A1466556657671667624635
:1034E000F0BDC046002B24DB11D000293EDA00B528
:1034F000C943404200D1013100F038F8C94340428D
:1035000000D10131DB43524200D1013300BD002A1A
:10351000EBD1002801D1002905D00020C90FC9072F
:1035200001D1C043410800B50DF0DAFC00220023B0
:1035300000BD00B500290ADBDB43524200D1013354
:1035400000F014F8C943404200D1013100BDC94325
:10355000404200D10131DB43524200D1013300F03F
:1035600005F8DB43524200D1013300BD002923D1CD
:10357000002B18D1002A0CD0BC460D4F38667A6655
:1035800000210023FFE7FFE7FFE77A6F386F674608
:103590007047002801D00748010000B50DF0A0FCDD
:1035A0000022002300BD02000B0000200021704714
:1035B000000000D0FFFFFFFF002B00D0BFE0130C86
:1035C00028D1002AE7D080B4114F39667A66FFE728
:1035D000FFE730B4040C7B6F396F1B0423433B6659
:1035E0007A66FFE7FFE7FFE7C04684B27B6F3D6F77
:1035F0001B0423433B667A66FFE7FFE7C0460023D0
:103600002C042D0C7A6F386F00196941B0BC7047DB
:10361000000000D0F0B594460025140E01D112022E
:103620000835140F01D112010435940F01D1920015
:103630000235D40F01D152000135D40B0134254F8E
:103640007C66254C3C660E0C93B2FFE7FFE7FFE774
:103650003C6F6643360C7703BE467343DF0B5B0457
:10366000C01AB941130C7343DB18C91ACE0866435C
:10367000360CB64493B273431F0F1B01C01AB941F5
:10368000130C73431F0B1B05C01AB941860D8F0223
:103690003E436643360C092D24DB520A7243801ADE
:1036A0007703460A6643360C16235B1BDE40DF4079
:1036B000BF1964466643821B704604350633010019
:1036C000D940A840C01900D30131A24206D200233C
:1036D000F0BD0000000000D0FFFFFFFF121B013013
:1036E000F3D3F1E709277F1BFE406446A2B2724381
:1036F000801A00D20139220C7243130C1204821A70
:1037000099410B007046043513370100F940A84079
:10371000801900D30131002B02D1A2420AD2F0BDA0
:10372000013000D30131121BFAD2013BF8D1A24281
:1037300000D2F0BD013000D30131121BF7E7F0B524
:103740001C0C00D080E00CB400251C0A04D11B0224
:10375000160E3343120208351C0B04D11B01160F41
:103760003343120104359C0B04D19B00960F334365
:1037700092000235DC0B02D192185B4101351C002E
:10378000971864410134464F7C66464C3C660E0CEB
:10379000FFE7FFE7FFE7C0463C6F6643360C770361
:1037A000BE4697B27743C01B00D20139C01B00D27E
:1037B00001399FB27743C91BC91B170C77437E049D
:1037C000FF0B801BB941CE086643360C0C2D33DB52
:1037D000B644120B1F053A431B0B97B27743C01B2D
:1037E00000D201399FB27743C91B170C77433E04BF
:1037F0003F0C801BB941860D8F023E43664329274B
:103800007F1BFE400C3D7746AF40BF1930BCA2B2D3
:10381000ABB272437343801A9941220C7243130C6A
:103820001204801A994102000B000137001BA941C4
:10383000F9D2781E0021F0BD0C277F1BFE40774691
:103840007F0BAF40FF19E0E700245D1C07D0144F49
:103850007D663966FFE7FFE7FFE7FFE73C6F95B25C
:103860009EB265436643401BB141150C1E0C654377
:10387000664336042F0C3E432D04401BB141994250
:1038800004D202000B0020000021F0BD01D19042C3
:10389000F7D3801A994101349942F2D3F6E7000038
:1038A000000000D0FFFFFFFF48404140484018B4EF
:1038B0001B4B5B68FC46019308BD04DF833B001093
:1038C00018B4174B1B68FC46019308BD00DF8D3B05
:1038D00000109446134A926F920809D2624618B4B7
:1038E0000F4BDB68FC46019308BD0CDF453E001022
:1038F0000C4AF0B5146E556E576F166F6246FFF79F
:10390000EEFF084A1466556657671667F0BD18B48F
:10391000034B9B68FC46019308BD08DFE93C00109F
:10392000C8200020000000D0FFB550404240504069
:1039300059404B40594000E0FFB5154F4C00640D15
:1039400003D0BC4204D10C0314D80020090D090592
:103950005C00640D03D0BC4204D11C030AD80022D1
:103960001B0D1B0501264B4009D44B4003D58B4250
:1039700000D18242FFBD9942FCD19042FFBD0B4372
:10398000DB1803431343F5D0C9434918FFBD0000BA
:10399000FF07000000B5FFF7CFFF804100BDC04624
:1039A00000B5FFF7C9FF01D9002000BD012000BD0F
:1039B00000B5FFF7B9FF01D9002000BD012000BD0F
:1039C00000B5FFF7B1FF804100BD012040054A006E
:1039D000121804D85A00121801D80020704701208C
:1039E00070470020704700000021002805D1704773
:1039F000C1174840401AFAD0C90713B5064B1B68D7
:103A000098470CBC441CA2401005120B0349091B2B
:103A100009051943114310BDC82100201F040000EF
:103A200010B54C00620D8023D218DB00D21A5B0562
:103A30007E2A10DD9E3A13DACC1709034908194390
:103A40005242D140640001341532202A05DAD040B8
:103A50000843604310BD002010BD0846604310BD00
:103A6000C80FC018013810BD18B4044B5B6AFC467F
:103A7000019308BD24DFF53F00100000C82000209E
:103A800070B513231C78012C14D0012C14DC022CEB
:103A900002DC1F4A1F4B9A641F48FFF771FC1F4B43
:103AA000186070BD99001A481A4A885001331F2BBC
:103AB000F8D9EAE70023FAE71948FFF769FC05009F
:103AC0001848FFF765FC023803789B007F2B19DD4F
:103AD000802229000F4800F0F9FB022CD7D1124BAD
:103AE0001A88B5231B029A4209D1104B1A88104B31
:103AF0009A4204D10F4B1A880F4B9A42C7D000202C
:103B0000FEF7A2F90D4B0E4A32210E48FEF702F9DC
:103B1000493B0010C82000204C330000C821002081
:103B2000534400005346000054380000D8380000C9
:103B3000494600009C38000059460000F81D01105D
:103B4000BC1E0110581E011007B56046002800D1A8
:103B500000BE01880A0A0230DF2AFAD1C9B28208FF
:103B600004D3028840880004104300E00068024A41
:103B70005050039007BD0000C82000200FB403BCC4
:103B80000CBCF0B50124E407634000E0F0B50C0D77
:103B9000CF0F661E3605891B640503D3C943404217
:103BA00000D30131640D03D0661CF60A07D0E41B74
:103BB00000207F00791C89078912803C24031D0D99
:103BC000DF0F6E1E36059B1B6D0503D3DB43524290
:103BD00000D301336D0D03D06E1CF60A07D0ED1B28
:103BE00000227F007B1C9B079B12803D2D032F1B17
:103BF000661B58D4A446202E46DA20371400BC4059
:103C00001D00BD40F24033412A4380185941CB0F7B
:103C100005D0C943C043002264425041514162462D
:103C20004D0D28D10D0D07D100281FD0241940417A
:103C30004941013A0D0DF9D0640006D3013000D39B
:103C40000131002C01D140084000013A0BD4941CF2
:103C5000E40A04D112051144DB071944F0BDD90769
:103C6000204B194300E0D9070020F0BD0029DDD129
:103C7000002CDBD1F0BD0132C6074008CD07284338
:103C80004908002EE1D0D9E73C2E29DA203E403702
:103C90001400BC4000D00124F24014431A00BB4081
:103CA0001C43D317ACE7AC46202F08DA20360400BB
:103CB000B4400D00B540F84039412843A5E73C2FFA
:103CC0000CDA203F40360400B44000D00124F84014
:103CD00004430800B1400C43C117EAE71000190083
:103CE000002494E70000F07FF0B50C0D661E360549
:103CF000891BE60A6405640D02D0651CED0A04D038
:103D0000002001210905803C2403A4461C0D671EE8
:103D10003F05DB1BE70A6405640D02D0651CED0A54
:103D200004D0002201231B05803C24037740644417
:103D300097B484B296B27443070C7E43150C6F435C
:103D400080B26843361802D3012000043F183004C3
:103D5000350C00197D41844688B29AB250430C0C50
:103D600062431F0C7C438EB27E43921902D301261C
:103D70003604A4191604170C3618674101BC81B229
:103D80009AB25143040C62431B0C5C4380B258430B
:103D9000121802D30120000424181004130C401838
:103DA00063412D185E410020474106BC88B293B2A2
:103DB00058430C0C6343120C544389B251435B18B3
:103DC00002D301210904641819041A0C091862416C
:103DD0006D1856410020474118BCF902720D11437D
:103DE000F0026A0D1043ED020A0D03D16D19404136
:103DF0004941013B124E9B1B7600B3420ED26D002F
:103E000007D30130002671416646354301D1400891
:103E100040001B05C918E4072144F0BD0BDA01334B
:103E200006D1013004D101314F0D01D04908F2E72C
:103E3000E1070020F0BD013631050020EBE700006E
:103E4000FF030000F0B51C0D671E3F05DB1BE70AF2
:103E50006405640D02D0661CF60A04D0002201231A
:103E60001B05803C2403D0252D060026F6432E6634
:103E70001E096E66CE0FF619B44649004F0D02D0EA
:103E80007E1CF60A03D000200021403F3F033E1B6A
:103E9000B600B444013F7F05C91B49082E6F0136A7
:103EA00076089C02950D25437543ED137543AD13BC
:103EB00001356D10F603761B0CB4CC02450D2C4376
:103EC000A2B2B3B25A43270C7B43350C6F43A4B262
:103ED0006C431B1902D3012424043F191C041D0C3C
:103EE000A4187D4124196D41009A91B2ACB261438E
:103EF000170C7C432B0C5F4392B25A43A41802D395
:103F000001221204BF182204230C52187B41019C89
:103F10006C431B19520ED9010A434401A01A81B205
:103F2000B2B2514303145A43360C734387B27743FA
:103F3000D617D21900277E4136049B191704160C98
:103F40007F185E417316ED18F3010026803375412A
:103F5000A90F06D16400690AE8055B0A184309D273
:103F60002FE00422944480337541A90AA8059B0AD6
:103F7000184326D3404149412404009A019B0D0077
:103F80005543641B4343E41A95B286B27543170C3C
:103F90007E43030C5F4392B25A43B61802D3012208
:103FA0001204BF183204330C52197B4152429C4117
:103FB000002C02D40022013051414008CA071043AE
:103FC000490802B06246D7079210084BD218084B36
:103FD0009A4203D212058918C919F0BD0020002A9F
:103FE00001DC3900F0BD01331905F5E7FD030000E0
:103FF000FE070000002200B5203200F004F808009F
:1040000000BD000000220B150AD410B5944600F044
:1040100031F81414013400DA0021CB17144C204776
:104020000020002170476244343A0CD40C2A07DA8D
:1040300004009140904052422032D440214310BDB0
:10404000D843D94310BD203207D40C469440524285
:1040500020321141D040204310BD0800C917203242
:1040600003D452422032104110BD1800190010BD77
:10407000274000100A0DCC0F531E1B05C91A52050C
:1040800003D3C943404200D30131520D03D0531C26
:10409000DB0A07D0121B00206400611C890789120B
:1040A000803A1203014BD21A70470000FF03000050
:1040B00051434343C9188C46110C83B24B4310B48F
:1040C000040C614392B280B2504362431C041B0C47
:1040D000001910BC59411304120CC018514161441D
:1040E0007047000070B513231D782A48FFF750F978
:1040F0000400012D11D0012D09DDA31E1B789B00AA
:104100007F2B40DD80222100234800F0DFF8234888
:10411000FFF736F9224B186070BD542201001E488B
:1041200000F0D4F81F4B1A881F4B9A421CD1A723CA
:104130009B011A881D4B9A4216D11D4B1A881D4BA4
:104140009A4211D11C4B1A8894239B019A420BD19D
:104150001A4B1A881A4B9A4206D11A4B1A681A4BF4
:104160009A4201D1152307E01848FDF76DFE99002A
:104170001748094A885001331F2BF8D9144A064BB7
:104180001A62DA61B7E7134B134A42211348FDF76D
:10419000C1FDC04653460000CC2100204C33000036
:1041A000C8210020EE290000C40F0000C20D00004D
:1041B000962B0000C0B50000182B0000CC2A000090
:1041C00010B50000FC2C000051ED8764FC180110B4
:1041D000E1410010D01E0110641F0110041F0110E6
:1041E00007B56046002800D100BE01880A0A0230E7
:1041F000DF2AFAD1C9B2820804D3028840880004B9
:10420000104300E00068024A5050039007BD0000D0
:10421000CC21002070B504000A4E30000CF0D8FE0E
:1042200020000BF01DFA050030000CF051FE002DAF
:1042300005D02C19044B9C4201D8280070BD0348BE
:10424000FDF702FED81A002000000420781F01109C
:1042500070B505000C000B4E30000CF0B9FE2100CB
:1042600028000BF0EBFD050030000CF031FE002DB6
:1042700005D02C19044B9C4201D8280070BD03487E
:10428000FDF7E2FDD81A002000000420781F01107D
:1042900070B50400054D28000CF09AFE20000BF0CC
:1042A000E9F928000CF014FE70BDC046D81A0020B1
:1042B00001480421014B184770120020A13300105F
:1042C000014B1B681847000070120020014B5B680F
:1042D000184700007012002010B5FFF79BFF10BDBB
:1042E00010B5FFF7D5FF10BD10B503000800110091
:1042F0001B68984710BD0000F8B507000D001600B8
:10430000437C002B02D0002400200CE00368110045
:10431000280098472DE03B7C10E0022115483B68BF
:104320009847601C0134B44214DA002CF3DD2B19D9
:10433000013B1B780D3B5A425341DBB22A5D0A2AEE
:10434000F0D1002BEED1A042E7DA211A28183B6801
:104350009847E2E7B04203DA311A28183B689847D9
:10436000002E06DDAD19013D2B780D3B5A4253411D
:104370003B74F8BD7C20011070B505000368002B6C
:1043800016D00C4B1C6805E0290004C92000FFF77B
:10439000B3FFE468002C09D02368002BF9D0064B4A
:1043A0001B68002BF0D0A342F3D1EDE700232B6074
:1043B00070BDC046A8200020B020002070B50500C8
:1043C0000C000B68802B05D021684B1C23606418FF
:1043D000257170BD0800FFF7CFFFF5E7F0B583B09A
:1043E00007000E000092019328E0A368002B04D080
:1043F000310038009847002827DCE468002C06D0FC
:10440000134B1D68002DF0D0A542F6D1EDE70099C1
:10441000019A104B5B6A9A4209D80E48806A88421A
:104420000FD29A4201D0012302E0002300E00023D2
:10443000002B08D101200021FDF77CF8064B1C68F9
:10444000DCE70123F4E70120404203B0F0BDC046A1
:10445000B020002000400540A820002010B582B008
:10446000D0231B0600241C5701A907480CF070FD3F
:10447000002806D1019B9C4203D003480CF0A8FD04
:10448000012002B010BDC046E01A002010B502485D
:104490000CF01EFD10BDC046E01A0020F0B5CE465F
:1044A000474680B583B006000D0090461C00FFF71C
:1044B000D5FF81466B1C05D0002C08D0194F1A4B34
:1044C0001C6807E030000BF00DFF0500F4E7174F04
:1044D000F5E7E468002C17D02368002BF9D0144BC3
:1044E0001B68002B01D0A342F3D12A003100200029
:1044F000B8474346002BECD06B46D91D0A230B70FE
:1045000001222000B847E4E74B46002B07D16B1E81
:104510009D41E8B203B0C0BCB946B046F0BDFFF75C
:10452000B5FFF4E7E9420010A8200020F94200108E
:10453000B020002010B582B004006B46D81D047076
:10454000002300220121FFF7A9FF200002B010BDC7
:1045500010B5030008001100002B05D1044B1A68A8
:104560005B68FFF73BFF10BD01204042FBE7C04600
:104570004816011010B5030008001400013B012B80
:1045800006D8002300222100FFF788FF200010BD7D
:1045900001204042FBE7000010B5064B1C6801E01B
:1045A0009847E468002C03D06368002BF8D1F8E743
:1045B00010BDC046A820002070B505000BF092FE8B
:1045C00004000023012201002800FFF767FFFFF726
:1045D000E3FF200070BD000070B5A2B004000E0023
:1045E000FFF73CFF05008422002101A8FFF768FEC9
:1045F0003300220001A90848FEF7AAFE040001A822
:10460000FFF7BAFEFFF7C8FF002D02D1200022B04D
:1046100070BDFFF73BFFF9E7BD4300100FB400B5D5
:1046200083B004A901C90191FFF7D6FF03B008BC0C
:1046300004B0184730B583B004000025FCF75AFFDA
:1046400002000B1E16DB12196B41994202D804D1ED
:10465000904202D901225242D317002B10DB0121D4
:1046600001A8FFF7BBFE002802DB0FD001AB1878D2
:1046700003B030BD094B0A4A3F210A48FDF74AFB07
:10468000064B074A3F210748FDF744FB9521064B9F
:10469000064A49000648FDF73DFBC0460C140110D0
:1046A00050200110281401104C2001106820011026
:1046B000F41F0110F0B5DE4657464E464546E0B5BC
:1046C00085B0060010001C0002930EAB1A7803920E
:1046D0000F9D109F33680022DA6633685960336893
:1046E0000132DA66A246002398469B4600242BE05E
:1046F0003279002A31D001222FE00399002901D01C
:1047000000212EE001212CE03800A84703000443DB
:10471000E4B2002B06D13268526BD20602D4002DCF
:10472000F2D1F6E7002B09D13268802151588B462F
:1047300000291FD1002C2FD1C1451ED0002C33D110
:1047400001229446E0440198D0452DDA029A013ABC
:1047500091464246002ACBD000229202C145CCD0DD
:10476000002149020A43411C01910078316802434B
:104770000A61D4E7526D01240EE0039A002ADDD1CC
:104780000AE03800A84703000443E4B2002B06D136
:104790003268526B920502D4002DF2D1F6E7002B5D
:1047A000CCD13268126EC9E7002C09D0002B15D18C
:1047B0005B46002B16D0DB0718D45B461B0709D5D8
:1047C000039B3371404605B0F0BCBB46B246A946D8
:1047D000A046F0BD02235B429846F1E701235B420D
:1047E0009846EDE702235B429846E9E702235B42E5
:1047F0009846E5E7F0B5DE4657464E464546E0B5F5
:1048000083B0050091469A460CAB1B7801930D9E30
:104810000E9F03680022DA6603685960036801325C
:10482000DA66D3460023984600242AE02979002935
:1048300033D0012131E00198002801D0002030E080
:1048400001202EE03800B04703000443E4B2002CFE
:104850000DD12A68926F002A09D12A688021515807
:10486000546D621E9441E4B2002EEBD1EFE7002CB0
:104870001ED12A68126949460A7001229446E04412
:10488000E144D84514DA5246541E2A68516F102963
:10489000FBD041460029C9D0002189024445CAD035
:1048A0000020400208438021490001431161D4E700
:1048B000002C04D0002B0CD001235B429846019BB6
:1048C0002B71404603B0F0BCBB46B246A946A04699
:1048D000F0BD02235B429846F1E70000044B83429F
:1048E00003D01022034B1A6070470822FAE7C04633
:1048F0008012002000E00040F0B5D6464F46464604
:10490000C0B505000C000520FDF7B8FB06006008E7
:1049100080192100FEF788FD070043009946814475
:1049200005214846FEF780FD80463B1A9A46284BF3
:104930009C4224D8700080192649FEF775FD441C5E
:104940004346023BA34221D32B680022DA66296842
:104950000A680423534006221A4080235B010B435C
:104960001A602B685246DA612B6842461A624B463F
:104970004F2B11D950214846FEF756FD0DE070002F
:1049800080191549FEF750FD441CD9E7134B144A12
:104990005F211448FDF7BEF90120A0232A68D050FA
:1049A0002A6811007C31D06F44402404240C8023F9
:1049B0005B010B431C602B680122DA663900300072
:1049C000FEF732FDE0BCBA46B146A846F0BDC0468F
:1049D0003F420F008096980040787D0180200110B2
:1049E000F8200110A020011010B5114B98421CD0E6
:1049F0001022104B1A60104B1A60104B9B68140069
:104A00009C43231EF9D104710268D46602686624AF
:104A1000FF3414600268D36302689363883303220F
:104A20000468E250FFF768FF10BD0822E1E7C046C6
:104A30008012002000E0004000F0004000C0004074
:104A400010B503680024DC66002910D004682168D2
:104A500080239B004B400B490B408021490121439F
:104A60000B6003689A6003680122DA6610BD016872
:104A70000B6841225340034A1340802252010A43EB
:104A80001360F0E741020000F0B5CE46474680B51E
:104A900089B08146884616001F0010AB1C7804AD13
:104AA000129A139B2800FCF7CDFC0295019000940C
:104AB0003B00320041464846FFF7FCFD09B0C0BC50
:104AC000B946B046F0BDF0B5CE46474680B589B090
:104AD0008146884616001F0010AB1C7804AD129A60
:104AE000139B2800FCF7AEFC0295019000943B005C
:104AF000320041464846FFF77DFE09B0C0BCB946CA
:104B0000B046F0BD0020704770470000012800D07B
:104B10007047054B9942FBD1044B054A1A600022AD
:104B20001A7101325A71F3E7FFFF0000581F00208D
:104B300000093D0010B50400034B0833036000F08A
:104B4000B1F8200010BDC046EC22011010B50400E1
:104B5000FFF7F0FF58212000FFF7C2FB200010BD37
:104B600030B585B0040008A8007840B20A9D0295CF
:104B7000099D01950090200000F076F8024B083363
:104B80002360200005B030BDEC22011030B585B0A7
:104B9000040002F0A6FA54230222E2540822A35E83
:104BA000733BD90FC91849100A22A35E203BDA0FC4
:104BB000D218521012B209B2012302931F3301938B
:104BC000533300930A4B200001F048FF1922094992
:104BD000200002F046FA051E02D1280005B030BDC3
:104BE000642000F061F9AF21200002F00BFAF4E735
:104BF0000C2101105023011010B502490120FFF7CC
:104C000085FF10BDFFFF0000012800D07047054B55
:104C10009942FBD1044B054A1A6000221A710132F5
:104C20005A71F3E7FFFF0000601F002000093D00FC
:104C300010B502490120FFF7E7FF10BDFFFF00009C
:104C4000012800D07047054B9942FBD1044B054A1F
:104C50001A6000221A7101325A71F3E7FFFF000057
:104C6000681F002000093D0030B585B0040008A889
:104C7000007840B20A9D0395099D0295019000932A
:104C800013000A000121200002F078F9044B0833D8
:104C9000236054230022E254200005B030BDC046FA
:104CA0006C23011010B50400034B0833036002F0BD
:104CB00089F9200010BDC0466C2301100A780378E2
:104CC0009A4200D20800704703680A68934200DAEB
:104CD00008007047F0B5DE4657464E464546E0B5FB
:104CE0008BB0050000F0EFF80823EC5E0A23E95EC4
:104CF0000731CA1707231A405218D210122102A8EE
:104D00008446614440200870D2B292462F386044F5
:104D10000470AA6A9289013A92B290463A22AE5E33
:104D2000F21713409E19F610F6B23822AB5E13212B
:104D300061440B70FFF7C2FF037899460023079385
:104D40003C22AB5E089308A907A8FFF7BDFF0378D4
:104D5000039347E005AF00239B4605933300503B88
:104D60007B705423EB5C4B441A111032BA700F2243
:104D70001340FB70E96A02F0A6FB5B4601930093C7
:104D8000013304223900A86A02F066FB1DE01F21EE
:104D9000614443460B700B2363441800FFF78EFFFA
:104DA000077801230193113302AA944663440093C8
:104DB00001233A002100A86A02F04EFBE41902AB7D
:104DC000DA7AD21BDA7200F07EF80B2302AA94463C
:104DD00063441B78002BDAD1296BA86A02F073FBBD
:104DE0000136F6B2564547D2112302AA94466344CF
:104DF0001B780B22624413701C0074434C44696B93
:104E00008C46644449465B1ADBB213700820295E65
:104E10000398411AC9B25B1801331370A86A0028BD
:104E200098D105AF3300503B3B705423EB5C4B44AF
:104E30001A1110327A700F221340BB702B6CD8B24B
:104E4000002100F09DF900239B46009303223900C6
:104E5000686A02F05FFC2B6CD8B2012100F090F977
:104E60000B2302AA944663441A785B460093210000
:104E7000686A02F04FFCB3E78023DB002B876B8767
:104E800001235B42AB87EB870BB0F0BCBB46B2465D
:104E9000A946A046F0BD000010B502490120FFF769
:104EA000CFFE10BDFFFF000010B5002800D110BDDF
:104EB000FCF7A8FAFBE710B5002800D110BD0021CF
:104EC000FCF774FAFAE7704770B506000C0009E0C9
:104ED000E1683000FFF7F8FFA56818212000FFF710
:104EE000FFF92C00002CF3D170BD000070B5012833
:104EF00005D0002802D10E4B994213D070BD0C4B47
:104F00009942F6D10B4B0C4A1C0060CA60C40B4A94
:104F10009A600B4B00221A719A601C1DDC601C61A8
:104F20005A61E6E706488168FFF7CEFFE6E7C0462C
:104F3000FFFF0000181F0020D0230110D82301100C
:104F4000B01E002010B502490120FFF7CFFF10BDB1
:104F5000FFFF0000F8B507000E00002500240CE05C
:104F60007B1919790A22300000F0BEF824182E218E
:104F7000300000F05FF824180135022DF0DDF979DA
:104F80000A22300000F0B0F82018F8BD30B503ACAC
:104F90002578054C0460054C0834046001714271A9
:104FA0008371C57130BDC046FC230110002401107F
:104FB00000B583B0012801D003B000BD054B994274
:104FC000FAD1002100910B000A000348FFF7DEFF31
:104FD000F2E7C046FFFF0000341F002010B5024971
:104FE0000120FFF7E5FF10BDFFFF0000F8B504004A
:104FF000002502E0013532003900561E002A07D094
:1050000023681B684F1C0978200098470028F1D1BD
:105010002800F8BD70B505000C1E09D003685E6855
:1050200008000BF05FF9020021002800B04770BDB6
:105030000020FCE710B503681B68984710BD00000E
:1050400010B503685B6802220149984710BDC0464D
:105050000C240110F0B5D6464F464646C0B58AB07E
:1050600081460D00160001AA20230021D154012EF3
:1050700001D909AF07E00A26FBE73034E4B2013F6B
:105080003C70D04510D8B04631002800FEF7CCF96E
:10509000CCB2AA4631002800FEF7C6F90500092C5B
:1050A000EBD93734E4B2EAE7002F0FD04B461B6848
:1050B0005C6838000BF016F9020039004846A0473A
:1050C0000AB0E0BCBA46B146A846F0BD0020F7E7FA
:1050D00010B5002A04D103681B68C9B2984710BDF7
:1050E000D2B2FFF7B7FFFAE710B5FFF7F1FF10BD37
:1050F00070B50500FFF7F8FF04002800FFF7A0FFD8
:10510000201870BDF8B505000C00022928D00BD876
:10511000002919D0012922D1FBF736FA0123AB402F
:10512000D0221206536216E0032918D1FBF72CFA9D
:105130000126AE40D0273F06BE6201220021280092
:10514000FBF708FA7E6106E0FBF71EFA0123AB408D
:10515000D022120693621D2D01D8084B5C55F8BD74
:10516000FBF712FA0126AE40D0273F06BE620022AE
:1051700001212800FBF7EEF9BE61ECE7781E002064
:1051800070B504000D001D2800D970BD0521FBF786
:10519000C9F9174B1B5D032B09D0022B15D0012336
:1051A000A340002D1FD0D02212065361EDE7002D41
:1051B00005D1023BA340D02212069362E5E701230A
:1051C000A340D02212065362DFE7012D05D0012350
:1051D000A340D02212065362D7E7013BA340D0225E
:1051E00012069362D1E7D02212069361CDE7C04642
:1051F000781E00201D2807D8D0231B065B68C340FB
:10520000DB0703D5012000E0002070470020FCE709
:1052100070B506000C0009E0E1683000FFF7F8FF08
:10522000A56818212000FFF75BF82C00002CF3D1B3
:1052300070BD70B50C00150004E001CC8021890020
:10524000FFF74EF8AC42F8D370BD10B50400036808
:10525000002B09D0436A1A1D4169FFF7EAFF636812
:1052600099002068FFF73CF8200010BD70B50C00D5
:10527000150004E080208000FFF72EF801C4AC4246
:10528000F8D370BDF0B583B004000F00CB095D1CEE
:105290000822009203330193082B2CD86B46186820
:1052A000606080239B05984227D28000FFF714F8A6
:1052B000060020606368581B400880003618AD0067
:1052C00075192A0031002000FFF7D0FF66613268AF
:1052D000E2608021890053182361043D65622B68D8
:1052E000E36159182162A2607F210F40BF00DB19E2
:1052F000A36103B0F0BD01ABD1E702F027FB0000D2
:10530000F0B589B004000E00012806D0002C02D1AF
:10531000244B9E4227D009B0F0BD224B9942F5D1D3
:105320000700214D002F15DB282200212800FEF761
:10533000C7FF002129606960A960E960296169618E
:10534000A961E961296269622800FFF79BFF28359E
:10535000013FE7E7154B00221A719A60191DD960C9
:1053600019615A61D2E711488168FFF751FF0E4C6D
:1053700050340D4B9C42CED0283CA3680493E36884
:1053800005932369069363690793A3690093E3690F
:105390000193236A0293636A03932000FFF755FF8A
:1053A000E7E7C046FFFF0000C81E0020981E00204F
:1053B00010B502490120FFF7A3FF10BDFFFF000059
:1053C00010B503681B6A014A984710BD130400001A
:1053D000007C704770B504001500C1614069FCF79E
:1053E00027FC0F232B40012B3CD0022B3CD1022069
:1053F000F0232B40102B39D00222F0231B011D403B
:1054000080239B009D4235D00133FF339D4233D032
:1054100080235B009D422BD00823656929002C3135
:10542000053B5B01013AD2001343002826D002223B
:105430001343012824D000221343EA6A53406E220A
:105440001340802252010A431360207E0221FBF7A1
:1054500069F8607E0221FBF765F801232374023BA3
:10546000236270BD0120C3E70020C1E70122C4E729
:10547000FB3BD2E70623D0E70723CEE70022D7E79E
:105480000422D9E710B50400037C002B00D110BD25
:105490004069FCF77BFB00232374F8E730B585B047
:1054A00004002430029002AB00221A7101A90BF013
:1054B0004FFD002808D1D0231B061B68019A934298
:1054C00005D002980BF084FD02AB01221A71237CF7
:1054D000002B2ED002AB1B79002B2DD0256A002D7E
:1054E00006DB02AB1B79002B29D1280005B030BDAB
:1054F000A3685901C91A8900C918C9006069FCF775
:10550000D7FB002804D101235B422362256AE8E728
:105510006269002101A8002907D19369DB06FCD448
:105520001368037001310130F5E701AB1B7823628A
:10553000ECE701256D42D4E701256D42D1E70298E1
:105540000BF0C6FCD1E710B584B004002430029003
:1055500002AB00221A7101A90BF0FAFC002808D155
:10556000D0231B061B68019A934205D002980BF0CA
:105570002FFD02AB01221A71237C002B09D002AB54
:105580001B79002B0DD063699B69DB060BD40124CA
:1055900000E0002402AB1B79002B06D1200004B0F0
:1055A00010BD0024F6E70024F4E702980BF090FC0D
:1055B000F4E710B584B004002430029002AB00225E
:1055C0001A7101A90BF0C4FC002808D1D0231B06D6
:1055D0001B68019A934205D002980BF0F9FC02ABCC
:1055E00001221A71237C002B09D002AB1B79002BFE
:1055F0000DD063699B699B060BD4012400E0002455
:1056000002AB1B79002B06D1200004B010BD002492
:10561000F6E70024F4E702980BF05AFCF4E710B523
:1056200084B004002430029002AB00221A7101A958
:105630000BF08EFC002808D1D0231B061B68019AB2
:10564000934205D002980BF0C3FC02AB01221A7101
:10565000237C002B0CD002AB1B79002B08D0626995
:1056600093691B07FCD402980BF032FC04B010BD08
:1056700002AB1B79002BF9D002980BF029FCF5E75F
:1056800030B585B004000D002430029002AB00223A
:105690001A7101A90BF05CFC002808D1D0231B066D
:1056A0001B68019A934205D002980BF091FC02AB63
:1056B00001221A71237C002B19D002AB1B79002B1D
:1056C00017D0626901A90D700020002807D19369E5
:1056D0009B06FCD40B78136001300131F5E70124FF
:1056E00002AB1B79002B06D1200005B030BD002491
:1056F000F6E70024F4E702980BF0EAFBF4E7F0B5D4
:1057000085B005000C0017002430029002AB002287
:105710001A7101A90BF01CFC002808D1D0231B062C
:105720001B68019A934205D002980BF051FC02AB22
:1057300001221A712B7C002B18D002AB1B79002B95
:1057400016D03E0001E0013E0134002E12D06A69FD
:10575000237801A90B7000200028F4D193699B06DF
:10576000FCD40B78136001300131F5E7002402E02E
:10577000002400E03C0002AB1B79002B02D120008A
:1057800005B0F0BD02980BF0A3FBF8E730B585B08B
:1057900004002430029002AB00221A7101A90BF020
:1057A000D7FB002808D1D0231B061B68019A93421F
:1057B00005D002980BF00CFC02AB01221A71237C7D
:1057C000002B2BD002AB1B79002B2AD0256A002D91
:1057D00009DB01235B42236202AB1B79002B26D13C
:1057E000280005B030BDA26853019B1A99008918A2
:1057F000C9006069FCF75CFA002815D062690021D5
:1058000001A8002907D19369DB06FCD41368037053
:1058100001310130F5E701AB1D78DDE701256D426F
:10582000DAE701256D42D7E701256D42D4E70298FA
:105830000BF04EFBD4E7000070B504000B4820606D
:10584000002565600A482060FA208000A0600948B1
:1058500020600948083020602574616122766376F3
:1058600020002430FCF776F9200070BD18240110C8
:1058700030240110542401108024011010B5012897
:1058800000D010BD074B9942FBD1012300220649ED
:105890000648FFF7D1FF0923082205490548FFF70D
:1058A000CBFFEEE7FFFF000000400340AC1C0020F0
:1058B00000800340D81C002010B502490120FFF7EA
:1058C000DDFF10BDFFFF000010B5041E01D1200058
:1058D00010BD0AF099FA2100FDF77EFD0C00F6E7F5
:1058E0007047704770477047024B08330360024BA4
:1058F00003607047F0240110BC24011010B50400AF
:10590000837D002B02D10023A37510BD406800F0F9
:1059100011FEF8E710B582B0040000910192083042
:1059200006226946FEF7D2FCA37D002B07D1A168B1
:10593000606800F063FE0123A37502B010BD6068CB
:1059400000F0F8FDF3E710B50400007C0521FAF73C
:10595000E9FD237D002B08D1A07C0521FAF7E2FDAB
:10596000607C0521FAF7DEFD10BDE07C0521FAF729
:10597000D9FDF1E710B50400044B08330360044B74
:1059800003601821FEF7ACFC200010BDF0240110CC
:10599000BC240110F8B505000C001700002602E039
:1059A000237001340136BE4222D22B689B682178D5
:1059B00028009847020003002070697B0129EFD07E
:1059C000000940B212011043C0B2820833231340D1
:1059D00080003322904340B20343DBB259082232A5
:1059E0000A405B0055218B435BB21343DBB2D7E720
:1059F000F8BD10B584B004006B46D971837D002BCF
:105A000000D16BE0437B012B5AD0CBB21A091B01AA
:105A10001A43D2B2910833230B40920033218A43B8
:105A200052B21343DBB2590855220A405B0055219C
:105A30008B435BB21343DBB26A46D3716068227B4F
:105A4000022A41D0032A41D10123012A02D0032A8C
:105A50003ED1023A9B0107210B43D2011343026856
:105A60005340C8310B40802252010243136001238E
:105A70000F226A446946073160680BF081FA637B44
:105A8000012B27D00F236B441B781A091B011A43E3
:105A9000D2B2910833230B40920033218A4352B291
:105AA0001343DBB25A08552002405B0022318B437E
:105AB00058B21043C0B20F236B44187004B010BD2D
:105AC0006B4607331B78B7E70123BEE70023BCE72B
:105AD0000022BFE70F236B441878ECE70020EDE7C6
